S00A000073742E7372656333
S113000019C028C027C026C025C024C023C022C0D0
S113001021C020C01FC01EC01DC01CC01BC01AC0F0
S113002019C018C017C016C015C014C013C012C020
S113003011C010C011241FBECFEFCDBFDFE3DEBF60
S11300402FE3A0E0BFE301C01D92A330B207E1F7A4
S113005066D06AC0D5CFE0E2F4E08181826081831A
S113006081818067818380898868808B82898868A0
S1130070828B83898868838B08958091280480FF0C
S113008006C0E0E2F4E08581826085830895E0E2C1
S1130090F4E086818260868308958091280480FF3D
S11300A00DC08091280483FF09C0E0E2F4E085815B
S11300B0806185838581806285830895E0E2F4E030
S11300C0868180618683868180628683089580919B
S11300D0280480FF1EC08091280482FF1AC08091EA
S11300E0003F9091013F01968093003F9093013F20
S11300F08091003F9091013F8436910579F41092EC
S1130100003F1092013FE0E0F4E087818064878340
S11301100895E0E0F4E086818064868308959BDF9F
S10F0120ACDFBBDFD4DFFCCFF894FFCFD2
S9030000FC
