S00A000073742E7372656333
S113000019C028C027C026C025C024C023C022C0D0
S113001021C020C01FC01EC01DC01CC01BC01AC0F0
S113002019C018C017C016C015C014C013C012C020
S113003011C010C011241FBECFEFCDBFDFE3DEBF60
S11300402FE3A0E0BFE301C01D92A434B207E1F79F
S113005002D017C1D5CFCF93DF93CDB7DEB708D089
S11300603CD068D08093403F95D0ABD0D5D0F8CF6A
S1130070CF93DF93CDB7DEB780E294E020E234E0A3
S1130080F90121812260FC01218380E094E020E0D9
S113009034E0F90121812067FC01218380E294E0AE
S11300A020E234E0F90120892868FC01208B80E2F9
S11300B094E020E234E0F90122892868FC01228BD3
S11300C080E294E020E234E0F90123892868FC010D
S11300D0238B0000DF91CF910895CF93DF9300D05D
S11300E0CDB7DEB780E490E089839A8312C089811A
S11300F09A8101978050914CFC01208189819A81D9
S11301008050914CFC01208389819A8101978983D5
S11301109A8389819A81892B51F780E294E0FC01CA
S1130120808581708093003F00000F900F90DF91D5
S1130130CF910895CF93DF9300D000D0CDB7DEB731
S113014019821A821B821C8213C08B819C8180506D
S1130150914CFC018081882F90E029813A81820FA3
S1130160931F89839A838B819C8101968B839C83C3
S11301708B819C818034910540F389819A81809799
S113018010F081E001C080E02496CDBFDEBFDF9196
S1130190CF910895CF93DF93CDB7DEB78091403FE1
S11301A0882331F080E294E022E0FC01258305C03D
S11301B080E294E022E0FC0126830000DF91CF91ED
S11301C00895CF93DF93CDB7DEB78091403F882366
S11301D0A9F080E294E0FC018085882F90E088708B
S11301E09927892B59F080E094E020E1FC012583D4
S11301F080E094E020E2FC0125830AC080E094E0E2
S113020020E1FC01268380E094E020E2FC012683C7
S11302100000DF91CF910895CF93DF93CDB7DEB780
S11302208091403F882321F180E294E0FC018085A5
S1130230882F90E084709927892BD1F08091413FD9
S11302409091423F01968093413F9093423F809129
S1130250413F9091423F843E9C4079F41092413F4B
S11302601092423F80E094E020E4FC01278305C023
S113027080E094E020E4FC0126830000DF91CF912C
S10902800895F894FFCF7D
S9030000FC
